:100000000C9434000C949D000C9451000C945100FD
:100010000C9451000C9451000C9451000C9451001C
:100020000C9451000C9451000C9451000C9451000C
:100030000C9451000C9451000C9451000C945100FC
:100040000C9451000C9451000C9451000C945100EC
:100050000C9451000C9451000C9451000C945100DC
:100060000C9451000C94510011241FBECFEFD8E026
:10007000DEBFCDBF11E0A0E0B1E0EEE8FAE002C0E3
:1000800005900D92A231B107D9F721E0A2E1B1E0CC
:1000900001C01D92A731B207E1F70E94CF030C9473
:1000A00045050C940000CF93DF930E94B800EC014B
:1000B00085E290E09983888322E02A839C838B8366
:1000C00021E02D839F838E8325E028879A87898767
:1000D00023E02B879D878C8784E08E87E9E6F0E01C
:1000E000808182608083E89ACE010E94DE01CE0189
:1000F000DF91CF910895209A28980895289A08951D
:1001000028980895CF93DF93EC016BE071E00E9493
:100110003C05892B21F4DF91CF910C947E006EE099
:1001200071E0CE010E943C05892B21F4DF91CF9133
:100130000C948000DF91CF9108951F920F920FB61B
:100140000F9211248F9381E0809312018F910F9071
:100150000FBE0F901F901895FB019C012B5F3F4F26
:10016000DC014D91CD014193A217B307C9F7089562
:1001700080E190E00E94170420E1FC0111922A9591
:10018000E9F70895CF93DF93DC01CD91DC911197CE
:10019000888112969C911297E1E0F0E001C0EE0F89
:1001A0009A95EAF7E095E823E8836EBD0DB407FE63
:1001B000FDCF8EB51F968C931F97FA01240F351F24
:1001C0002E173F07A1F4ED91FC91119780811296B3
:1001D0009C91129721E030E001C0220F9A95EAF736
:1001E000822B80831F968C91DF91CF91089580811F
:1001F0008EBD0DB407FEFDCF8EB58193E1CF606259
:100200000C94C2000C94C20030E020E050E040E0CA
:100210006FEF0C94C2000C940401FC0187850895D3
:10022000DF92EF92FF920F931F93CF93DF9300D053
:1002300000D000D0CDB7DEB78C01D62ECA01BE01EA
:100240006F5F7F4F0E94AC006AE06D0D25E030E0EB
:10025000AE014F5F5F4FC8010E94FF0021E030E018
:10026000AE014A5F5F4F62E0C8010E940201EE24C6
:10027000E394F12C970101C0220FDA94EAF78E8102
:10028000822B8E8321E030E0AE014A5F5F4F62E057
:10029000C8010E94FF00D8011396ED91FC911497BC
:1002A000808115969C9101C0EE0C9A95EAF7E82A98
:1002B000E08226960FB6F894DEBF0FBECDBFDF9169
:1002C000CF911F910F91FF90EF90DF900895FC0167
:1002D000878590E095958795877099278630910559
:1002E00014F08FEF9FEF0895CF93DF93EC01EB8134
:1002F000FC8120813D8181E090E001C0880F3A952A
:10030000EAF7809582238083CE010E940B01CE0103
:100310000E946701892F8095881F8827881FDF9199
:10032000CF91089530E020E050E040E061EE0C9481
:10033000C2000F931F93CF93DF931F92CDB7DEB709
:100340008C0121E030E0AE014F5F5F4F60E00E9422
:10035000020189818E7F898321E030E0AE014F5F09
:100360005F4F60E0C8010E94FF00D8011396ED9135
:10037000FC911497808115969C9121E030E001C09A
:10038000220F9A95EAF7822B80830F90DF91CF910D
:100390001F910F910895CF93DF931F92CDB7DEB7D2
:1003A00020E7298321E030E0AE014F5F5F4F67E037
:1003B0000E94FF000F90DF91CF910895FF920F935D
:1003C0001F93CF93DF931F92CDB7DEB78C01DC0173
:1003D000ED91FC911197229112963C91129781E038
:1003E00090E0AC0101C0440F3A95EAF7242B20833A
:1003F0001396ED91FC911497229115963C911597C7
:10040000AC0101C0440F3A95EAF7242B2083ED910B
:10041000FC911197208112963C911297AC0101C07A
:10042000440F3A95EAF7242B20831396ED91FC9123
:100430001497408115962C911597BC0102C0660F48
:10044000771F2A95E2F79B012095242320832CB562
:1004500020612CBD2CB520642CBD1696ED91FC912D
:100460001797229118963C911897AC0101C0440F40
:100470003A95EAF7242B20831996ED91FC911A976F
:1004800022911B963C911B97AC0101C0440F3A95F9
:10049000EAF7242B20831C96ED91FC911D97229165
:1004A0001E963C9101C0880F3A95EAF78095822309
:1004B00080838CB5877F8CBD8CB58B7F8CBD8CB5D4
:1004C0008E7F8CBD8CB58D7F8CBD8DB581608DBDD3
:1004D0008CB58F7D8CBD30E020E050E040E062EED6
:1004E000C8010E94C20030E020E050E040E061EE30
:1004F000C8010E94C200C8010E94CB018FE089831D
:1005000021E030E0AE014F5F5F4F60E0C8010E9424
:10051000FF008FE3F82EF98221E030E0AE014F5F5B
:100520005F4F61E0C8010E94FF00F98221E030E0E6
:10053000AE014F5F5F4F6CE1C8010E94FF0084E095
:10054000898321E030E0AE014F5F5F4F6DE1C8016C
:100550000E94FF00198221E030E0AE014F5F5F4F43
:1005600062E0C8010E94FF000F90DF91CF911F91C0
:100570000F91FF900895CF93DF931F92CDB7DEB711
:1005800020E3298321E030E0AE014F5F5F4F67E059
:100590000E94FF000F90DF91CF910895CF92DF92DC
:1005A000EF92FF920F931F93CF93DF9300D000D071
:1005B00000D0CDB7DEB78C016B017A010E94BB027F
:1005C000BE016F5F7F4FC6010E94AC0025E030E0A6
:1005D000AE014F5F5F4F60E1C8010E94FF00BE01A6
:1005E0006F5F7F4FC6010E94AC0025E030E0AE0196
:1005F0004F5F5F4F6AE0C8010E94FF00D7019296EB
:100600002C9130E0A7014E5F5F4F60EAC8010E9465
:10061000C20021E030E0AE014A5F5F4F60E0C801F8
:100620000E9402018E818E7F8E8321E030E0AE0138
:100630004A5F5F4F60E0C8010E94FF00D801139637
:10064000ED91FC911497808115969C9121E030E00A
:1006500001C0220F9A95EAF7822B808326960FB667
:10066000F894DEBF0FBECDBFDF91CF911F910F91E8
:10067000FF90EF90DF90CF900895EF92FF920F934D
:100680001F93CF93DF931F92CDB7DEB78C01DC01B0
:100690001396ED91FC911497208115963C9181E081
:1006A00090E001C0880F3A95EAF780958223808315
:1006B000C8010E940B01F8018785F12CE12C85FD12
:1006C00009C09EEFE92EFF24FA9484FF03C0EE24B4
:1006D000EA94FE2CC8010E94BB0221E030E0AE018A
:1006E0004F5F5F4F60E0C8010E9402018981816015
:1006F000898321E030E0AE014F5F5F4F60E0C801C9
:100700000E94FF00C7010F90DF91CF911F910F91C1
:10071000FF90EF900895CF93DF931F92CDB7DEB790
:10072000FC0197859064998321E030E0AE014F5F32
:100730005F4F67E0CF010E94FF000F90DF91CF91E4
:1007400008950F931F93CF93DF938C01EB010E94C9
:10075000670199838883C8010E948B0388819981EE
:1007600097FF07C01AA280E0DF91CF911F910F91F0
:10077000089521E030E0AE014E5D5F4F60E6C801B4
:100780000E9402012AA1222341F030E0AE014E5F17
:100790005F4F61E6C8010E94C20081E0E5CFCF93C0
:1007A000DF93CDB7DEB7AD970FB6F894DEBF0FBEBF
:1007B000CDBF85E0E6E0F1E0DE01999601900D9273
:1007C0008A95E1F70E947B0078940E9453008C0187
:1007D000AE01475D5F4F70E060E00E94100121E0D4
:1007E00030E0AE014C5D5F4F60E0C8010E94020145
:1007F000809112018823E1F310921201C8010E9436
:100800007401811109C0AE01475D5F4F70E060E087
:10081000C8010E941001ECCFBE016F5F7F4FC8017D
:100820000E94A103CE0103960E948200E7CF0F939E
:100830001F93CF93DF938230910510F482E090E014
:10084000E0911501F091160130E020E0B0E0A0E069
:10085000309799F42115310509F44AC0281B390B4A
:1008600024303105D8F58A819B816115710589F1A4
:10087000FB0193838283FE0111C04081518102817B
:10088000138148175907E0F04817590799F4109752
:1008900061F012960C93129713961C933296CF0127
:1008A000DF91CF911F910F9108950093150110933F
:1008B0001601F4CF2115310551F04217530738F0D6
:1008C000A901DB019A01BD01DF01F801C1CFEF01F0
:1008D000F9CF9093160180931501CDCFFE01E20F61
:1008E000F31F819391932250310939832883D7CF05
:1008F0002091130130911401232B41F42091020126
:1009000030910301309314012093130120910001D1
:10091000309101012115310541F42DB73EB74091C9
:10092000040150910501241B350BE0911301F09156
:100930001401E217F307A0F42E1B3F0B2817390709
:1009400078F0AC014E5F5F4F2417350748F04E0F2B
:100950005F1F5093140140931301819391939FCF94
:10096000F0E0E0E09CCFCF93DF930097E9F0FC014B
:10097000329713821282A0911501B0911601ED01F8
:1009800030E020E01097A1F420813181820F931F85
:1009900020911301309114012817390709F061C023
:1009A000F0931401E0931301DF91CF910895EA01D0
:1009B000CE17DF07E8F54A815B819E01411551059D
:1009C000B1F7E901FB83EA8349915991C40FD51F1F
:1009D000EC17FD0761F4808191810296840F951FC9
:1009E000E90199838883828193819B838A83F0E0E4
:1009F000E0E012968D919C9113970097B9F52D9197
:100A00003C911197CD010296820F931F2091130103
:100A1000309114012817390739F6309751F51092A3
:100A2000160110921501B0931401A0931301BCCFCD
:100A3000D383C28340815181840F951FC817D90782
:100A400061F44E5F5F4F88819981480F591F518330
:100A500040838A819B81938382832115310509F02C
:100A6000B0CFF0931601E09315019ECFFD01DC019C
:100A7000C0CF13821282D7CFFB01DC018D91019090
:0E0A800080190110D9F3990B0895F894FFCF57
:100A8E0000001701800001010101024F4E004F4688
:020A9E00460010
:00000001FF
